:1000000080125420202020203D200053657420546D
:10001000203D2000759000C293C292C2B7D290D208
:1000200091783276A20876004389115389FD758054
:1000300000314911EF7830E9F6EA08F67401C2920E
:10004000310A7834900002D2923160317531A53195
:10005000B4319D31A531C576007834316A7832E605
:10006000F908E6FA74C0C292310A784590000B3163
:1000700060317531A531B4319D31A531C576007837
:1000800045316A31EA7BFF118DDBFC80A6758A174A
:10009000758CFCD28C308DFDC28CC28D22DFFE228D
:1000A000D2B37F30119DC2B37FB4119D7FB4119D37
:1000B000D2B37F54119D30B3004306018003530631
:1000C000FE7F14119D227E08E4C2B3C313D2B33065
:1000D000B30244807F1E119DDEEF227E08C2B3135F
:1000E00092B37F2D119DD2B3DEF37F1E119D22119D
:1000F000A074CC11DB744411DB11A074CC11DB743F
:10010000BE11DB11C6F911C6FA2253900FFF54F04D
:100110008590F053F00F45F0F590EFD293118DC21A
:10012000937F28118DDFFC53900F7F04C333DFFCD6
:0201300054F089
:100132008590F053F00F45F0F590D293118DC29354
:100142007F28118DDFFC22C2927402310A74283199
:100152000A740E310A7401310A7480310A22E4935E
:100162006005F608A380F722D292E66005310A08FC
:1001720080F822EA5480C2D17002800CD2D1E9F414
:10018200C304F9EAF43400FAEA7B04C333DBFCF576
:10019200F0E97B04C313DBFC45F022E9540F75F050
:1001A20006A42275F00A842430FFE5F02430F5F02D
:1001B200EF2220D1028006FB742DF608EBF608A68A
:1001C200F00822762E08F608A6F00822E430900203
:1001D200440130910244027B14118DDBFC20900219
:1001E20054FE20910254FD227830E6F5F07832E692
:1001F200C395F0FBF5A07831E6F5F07833E695F09B
:02020200FC22DC
:00000001FF
