:10000000800754203D20002E00759000C293C292BC
:10001000C2B74389115389FD75800075A000311066
:1000200011B6313E316EAA00317D78307401C29232
:1000300011D1900002D2923127313390000731273D
:100040008A003166316E31927830313378FF115445
:10005000D8FC80CC758A17758CFCD28C308DFDC293
:100060008CC28D22DFFE22D2B37F301164C2B37FF7
:10007000B411647FB41164D2B37F54116430B300FF
:1000800043060180035306FE7F141164227E08E4B8
:10009000C2B3C313D2B330B30244807F1E1164DEF7
:1000A000EF227E08C2B31392B37F2D1164D2B3DE68
:1000B000F37F1E116422116774CC11A2744411A243
:1000C000116774CC11A274BE11A2118DF8118DF9B3
:1000D0002253900FFF54F08590F053F00F45F0F548
:1000E00090EFD2931154C2937F281154DFFC5390A8
:1000F0000F7F04C333DFFC54F08590F053F00F45BD
:10010000F0F590D2931154C2937F281154DFFC2252
:10011000C292740211D1742811D1740E11D17401DC
:1001200011D1748011D122D292E493600511D1A330
:1001300080F722D292E6600511D10880F822E954B6
:1001400080C2D17002800CD2D1E8F4C304F8E9F483
:100150003400F9E97A04C333DAFCF5F0E87A04C331
:1001600013DAFC45F022E8540F75F006A42275F06E
:100170000A842430FFE5F02430F5F0EF22783020B7
:10018000D1028006FB742DF608EBF608A6F008767F
:0C01900000227830F608A6F00876002265
:00000001FF
