:10000000800554203D2000759000C293C292C2B773
:10001000D290D2914389115389FD75800075A0005B
:10002000310911AF7401C29211CA7830900002D226
:10003000923120313531653174315D3165318576EC
:10004000007830312A7BFF114DDBFC80D5758A1793
:10005000758CFCD28C308DFDC28CC28D22DFFE22CD
:10006000D2B37F30115DC2B37FB4115D7FB4115D37
:10007000D2B37F54115D30B30043060180035306B1
:10008000FE7F14115D227E08E4C2B3C313D2B330E5
:10009000B30244807F1E115DDEEF227E08C2B313DF
:1000A00092B37F2D115DD2B3DEF37F1E115D22115D
:1000B0006074CC119B7444119B116074CC119B74BF
:1000C000BE119B1186F91186FA2253900FFF54F04E
:1000D0008590F053F00F45F0F590EFD293114DC29B
:1000E000937F28114DDFFC53900F7F04C333DFFC57
:1000F00054F08590F053F00F45F0F590D293114DE8
:10010000C2937F28114DDFFC22C292740211CA747F
:100110002811CA740E11CA740111CA748011CA223E
:0A012000E4936005F608A380F722BF
:10012A00D292E6600511CA0880F822EA5480C2D148
:10013A007002800CD2D1E9F4C304F9EAF43400FA6B
:10014A00EA7B04C333DBFCF5F0E97B04C313DBFC75
:10015A0045F022E9540F75F006A42275F00A8424AA
:10016A0030FFE5F02430F5F0EF2220D1028006FBC3
:10017A00742DF608EBF608A6F00822762E08F60883
:10018A00A6F00822E4309002440130910244027B36
:10019A0014114DDBFC20900254FE20910254FD22E2
:00000001FF
