:101486005420202020203D20252E326600536574EE
:0A1496002054203D20252E32660070
:10124C00C2B775900FC293C292D290D291E4F54F6F
:10125C00F54E754DA8754C411214A0121403752946
:10126C000085502A752900E551FEEE4229AC29ADC6
:10127C002AEC120A7CE4FBFA7980783D1208F88F8C
:10128C00288E278D268C257555FF75561475578617
:10129C008F5B8E5A8D598C587B007A00792B120EED
:1012AC00397F0112138A7F8012138A12134D7FC06B
:1012BC0012138A7555FF755614755793854F5B85B8
:1012CC004E5A854D59854C587B007A00792B120E5D
:1012DC003912134DAF28AE27AD26AC25AB4FAA4E15
:1012EC00A94DA84C1209FE60054003D38001C3929E
:0E12FC00B712130A7F0A7E0012143D02126719
:1014280054F04290D292D2937F647E0012143DC24F
:05143800937FE87E0334
:0B143D00EF1FAC0670011E4C70F62281
:1013B400E4FDD2B37F08FE12143DC2B37F507E0019
:1013C40012143DD2B37F0E7E0012143DA2B3E43357
:0813D400FD7F147E0002143DB0
:10146800E4FB7D08C2B3EBC313FBD2B330B3034331
:0D14780003807F047E0012143DDDE9AF0308
:011485002244
:02144800AD07EE
:10144A007B08C2B3ED1392B37F057E0012143DD21E
:0E145A00B3EDC313FDDBEB7F047E0002143DF7
:101403001213B47FCC1214487F441214481213B43D
:101413007FCC1214487FBE1214481214688F5012E6
:0514230014688F512246
:10138A00AD07C29253900FED54F0429012142E53AF
:10139A00900FEDC454F04290D2937F647E001214F1
:0A13AA003DC2937FE87E0302143D6C
:06134D007B007A00792B01
:10135300D2928B228A238924AB22AA23A924120D99
:1013630041602353900F12142853900FAB22AA23EA
:10137300A924120D41C412142874012524F524E470
:071383003523F52380D2227F
:1014A0007F0212138A7F2812138A7F0E12138A7FFB
:0914B0000112138A7F8002138AE5
:10130A00D291D290209119121439209135AF4FAE53
:10131A004EAD4DAC4CE4FBFAF9783F120807801A3F
:10132A0020901F121439209019AF4FAE4EAD4DAC1C
:10133A004CE4FBFAF9783F1208038F4F8E4E8D4D1D
:03134A008C4C22A6
:10080000020AEAE86480F8E933E83360110460F032
:10081000ED33EC337009E8FCE9FDEAFEEBFF22045E
:1008200060DED3EB9FEA9EE99DE8C2E78CF0C2F759
:1008300095F0400CE8CCF8E9CDF9EACEFAEBCFFB25
:10084000120AB585D0F05804700320D5B3E80470BF
:10085000075002B2D5020AF492D5EC0460F7E4CC5A
:10086000C0E0C398F8603B94186008400DD0E0FBEE
:10087000020ACCE4FBFAC9FC8028E830E406E4C9AB
:10088000FBE4CAFCE830E305E4C9CACBFCE8540742
:100890006010F8C3E913F9EA13FAEB13FBEC13FC4D
:1008A000D8F130F52FC3E49CFCEF9BFFEE9AFEEDF0
:1008B00099FDD0E0FBEF4E4D4C701222DB03020A93
:1008C000F1EC2CFCEF33FFEE33FEED33FDED30E7C2
:1008D000EB020ACCEF2BFFEE3AFEED39FDD0E0FB48
:1008E00050130BBB0003020AF4ED13FDEE13FEEFF1
:0808F00013FFEC13FC020ACC1B
:1008F800EC4D6011E8497017ED33EC3304600DE4FA
:10090800FCFFFEFD22E933E8330470F8020AEA121C
:100918000AB558046009E4CC24815006285009021D
:100928000AF4284003020AF1C0E0EB4A7044B98097
:1009380006D0E0FB020AE0EF4E701CBD8008EBFF1A
:10094800EAFEE9FD80EBE98DF0A4FEE5F00209E19D
:10095800E9CDF9EAFEEBFFEF89F0A4FCE5F0CE89DA
:10096800F0A42EFFE435F0CD89F0A42DFEE435F097
:100978008067EF4E7005BD80D780C3EF8BF0A4ACC5
:10098800F0EE8BF0A42CFCE435F0F8EF8AF0A42C00
:10099800E5F038FCE433CB8DF0A42CFCE5F03BF813
:1009A800EE8AF0A42CFCE5F038F8E433CF89F0A403
:1009B8002CFCE5F038CF3400CE89F0A42FFFE5F009
:1009C8003EFEE433C98DF0A42EFEE5F039CD8AF061
:1009D800A42FFFE5F03EFEE43DFD33D0E0FB5007D9
:1009E8000BBB000F020AF4EC2CFCEF33FFEE33FED6
:0609F800ED33FD020ACC04
:1009FE0074F8CC6480CCC86480C8F58204604FC3A0
:100A0E00EB9FF5F0EA9E42F0E99D42F0E89C45F03E
:100A1E00603C501DE5825FFFE582D313CB5BCBF4C8
:100A2E002B5582FB50280ABA002409B900200880F1
:100A3E001DE5825BFBE582D313CF5FCFF4C3132F8B
:100A4E005582FF50090EBE00050DBD00010CC3EB13
:100A5E009FF5F0EA9E42F0E99D42F0E89C45F06079
:090A6E0007CC4820E701B3EC229B
:100A770075F020800E75F010800575F0087D007EFA
:100A8700007F003392D530D503120D99EC33401017
:100A9700EF33FFEE33FEED33FDEC33FCD5F0ED2203
:0E0AA700E5F0247EA2D513CC92E7CDCEFF223F
:100DDD00E5692455F8E60569227852300702785501
:100DED00E475F001120DA7020D412000EB7F2ED20C
:100DFD00008018EF540F2490D43440D4FF30040BEE
:100E0D00EF24BFB41A0050032461FFE56A60021598
:100E1D006A056DE56D7002056C30070D7852E4754D
:100E2D00F001120DA7EF020D870213DC7403D20738
:100E3D008003E4C207F5698B528A538954E4F56A3D
:100E4D00F56CF56DE56A60077F20120E1880F5755B
:100E5D006BFFC201C200C202C203C205C206C208B4
:100E6D00120DE6FF700D3007057F00120E29AF6DD4
:100E7D00AE6C22B4255FC2D5C204120DE6FF24D09C
:100E8D00B40A00501A75F00A786A30D50508B6FF15
:100E9D000106C6A426F620D5047002D20380D924FB
:100EAD00CFB41A00EF5004C2E5D204021116D201DC
:100EBD0080C6D20080C0D20280BCD2D580BAD20505
:100ECD0080B47F20120E182002077401B56A00400D
:100EDD00F1120DDDFF120E18020E51D208D206804E
:100EED0095120DDDFB120DDDFA120DDDF94A4B7079
:100EFD0006790D7A127BFF20022EE56A602A7E00AC
:100F0D008E82758300120D5A60060EEE656B70F0C1
:100F1D00C2D5EBC0E0EAC0E0E9C0E0EE121176D038
:100F2D00E0F9D0E0FAD0E0FB120D41FF60AAEBC072
:100F3D00E0EAC0E0E9C0E0120E18D0E02401F9D0DB
:100F4D00E03400FAD0E0FBE56B0460DCD56BD980B2
:100F5D0087D20280A212115960F7E56B700104125D
:100F6D000AFFA96B600DE56B600914F56B12120099
:100F7D00EF60F3EA30E702F404C3995077EAF42501
:100F8D006B0430E701E404F56B800D12115960C15B
:100F9D00EA056B256B120AFFEA7868F630E701E483
:100FAD00256B04D56B0420050114121176E4C0E005
:100FBD001212007868E6601320E70714F6120E008F
:100FCD00802204F6D0E014C0E07F00120E00E56B25
:100FDD006007120DF7156B800B300503120DF7D05E
:100FED00E0020E51D0E00480C512115960A0E56BEE
:100FFD0004120AFF7868EAF6E56B20050260010429
:05100D0024041211761D
:1010120074FF04C0E0121200120E00E56B200502FC
:101022006003120DF7D0E0B56BE87F45120E0A7827
:1010320068E67F2B30E7047F2DF404C0E0120E181F
:10104200D0E075F00A84C0F0120E01D0E0120E0159
:10105200020E51791080027908C206C2088008D2B5
:10106200D5790A8004790AC2D5E56B047002F56B62
:10107200E4FAFDFEFF120DDDFC7B08200113120DC8
:10108200DDFD7B1030000A120DDDFE120DDDFF7B4F
:1010920020EC3382D592D55013C3E43000069FFF73
:1010A200E49EFEE42001039DFDE49CFCE4CBF8C237
:1010B20001EC700CCFCECDCCE824F8F870F3801799
:1010C200C3EF33FFEE33FEED33FDEC33FCEB33FBCA
:1010D200994002FB0FD8E9EB300105F8D0E0C44893
:1010E200B201C0E00AEC4D4E4F78207B0070C2EA9C
:1010F200B56B0040BCC0E0121178D0F0D0E0200106
:1011020004C4C0E0C4B201C0F0120E01D0F0D5F0A8
:10111200EB020E51120DB70EEE531055580EBF4C86
:101122000EBB4210594F1061441061490ED4431056
:1011320067550F98460FF6450F6247122D500EC3A2
:101142002D0EC72E0EEA2B0ECB230EE82012162AE6
:101152000E834800000EE2E56BB4FF03756B0612C6
:101162000DDDFC120DDDFD120DDDFE120DDDFF7831
:1011720061020B2E790AA2D5200314300509B91099
:10118200020404B9080104A2D52006025001042079
:1011920002689202B56A005034C0E07F2030031921
:1011A2007F30A20272067205500F1211CFC202C224
:1011B20006C205C2087F30800F300503E9C0E01285
:1011C2000E18300503D0E0F9D0E0B56ACC3005172F
:1011D2007F30B9100C120E187F583004077F7880C8
:1011E20003B90803120E183002057F2D020E187F74
:1011F200202008F87F2B2006F322920280CF7F0066
:10120200B4070050052461F8E6FF22286E756C6C65
:101212002900D201120DDD3001F8C201786A30D501
:101222000108F6020E832D50434958120DDD2403A6
:10123200B405004001E490122893120E09743A1288
:0A1242000E09D203756A040210556C
:100AB500E9D2E7C933E833F892D5EDD2E7CD33EC87
:070AC50033FC5002B2D52200
:100ACC00EC30E7100FBF000C0EBE00080DBD00048B
:100ADC000BEB6014A2D5EB13FCED92E7FD2274FF37
:100AEC00FCFDFEFF22E480F8A2D574FF13FC7D8090
:030AFC00E480EFA4
:100AFF00F920E72824F950037907E4F42402FB18BE
:100B0F00DBFDE624FB5014E9600DE4F618E604F66D
:0F0B1F00B40A08E4F6D9F57401F60A22C2D52209
:100B2E00ED33EC3392D5FA602AB4FF33EDC2E77B96
:100B3E00FF60067A0B7953E4227A0B795C20D50498
:100B4E007A0B7957224E614E002B494E46002D49A5
:100B5E004E4600E47A08F608DAFC7B00740722E8B9
:100B6E00C0E0ECC0E0EDC0E0EEC0E0EFC0E0EA7542
:100B7E00F010A4CAABF075F04DA42BFBE435F0FCDD
:100B8E00EA2410FAEB34C5FBEC34D9FCEDC2E7FFD6
:100B9E0075F056A4F42411C5F0F434C58FF0A42AD0
:100BAE00E5F03BE43CF620E714120D01D0E0FFD057
:100BBE00E0FED0E0FDD0E0FC120C348014F4041200
:100BCE000D01D0E0FFD0E0FED0E0FDD0E0FC120839
:100BDE00F8D0E0F8E6FAEDD2E7CD33EC332482FB21
:100BEE00E4C3CF33CFCE33CECD33CD33DBF37B0760
:100BFE0075F00A846004F6081B0AE5F0F6088FF01B
:100C0E00740AA4FFACF08EF0740AA42CFEACF05063
:100C1E00010C8DF0740AA42CFDE435F0F608DBDE31
:030C2E0074072226
:100C3100020AF4EC5D046005E859047003020AEA53
:100C4100120AB5580460F6EC4860F2EC7004FDFE3F
:100C5100FF22C860DB2481C85009C3986002500696
:100C6100020AF19850CAF582E9294B4A7005AB8214
:100C7100020AE075F0007C1A7880C3EF9BEE9AEDD2
:100C810099400DC3EF9BFFEE9AFEED99FDE842F00E
:100C9100DC23ACF0D0E0FFD0E0FED0E0FDAB822061
:100CA100E7101BEB60BAEC2CFCEF33FFEE33FEEDEB
:100CB10033FD020ACCE803F830E705C0F075F00017
:100CC100EF2FFFEE33FEED33FD40B830E7C280AACF
:100CD1003F8000004120000042C80000447A00002B
:100CE100461C400047C35000497424004B189680AD
:100CF1004CBEBC205A0E1BCA6753C21C749DC5AEA4
:100D0100FB60065407601C2323120D2FEB5438603F
:100D110009120D1B120D2A1208F8ECF8EDF9EEFA82
:100D2100EFCB22EB120D2A80F1543803241C900CD6
:100D3100D1FE93FC0EEE93FD0EEE930ECE93FF22A9
:030000000214B92E
:0C14B900787FE4F6D8FD75816D02124CBE
:100D4100BB010689828A83E0225002E722BBFE02B0
:090D5100E32289828A83E49322E3
:100D5A00BB010CE58229F582E5833AF583E022504E
:100D6A0006E92582F8E622BBFE06E92582F8E22298
:0D0D7A00E58229F582E5833AF583E49322B2
:100D8700BB010689828A83F0225002F722BBFE014B
:020D9700F32245
:0E0D9900C3E49FFFE49EFEE49DFDE49CFC226B
:100DA700FAE6FB0808E6F925F0F618E6CA3AF6224D
:100DB700D083D082F8E4937012740193700DA3A3CB
:100DC70093F8740193F5828883E4737402936860DF
:060DD700EFA3A3A380DFDF
:1013DC00EFB40A07740D1213E7740A309811A89928
:1013EC00B8130CC2983098FDA899C298B811F63071
:0713FC0099FDC299F5992249
:00000001FF
