:1000000080125420202020203D200053657420546D
:10001000203D2000759000C293C292C2B7D290D208
:1000200091783276500876014389115389FD7580A5
:1000300000314B11F17830E9F6EA08F67401C2920A
:10004000310C7834900002D2923162317731A7318D
:10005000B6319F31A731C776007834316C7832E6FB
:10006000F908E6FA74C0C292310C784590000B3161
:1000700062317731A731B6319F31A731C776007829
:1000800045316C31D051067B64118FDBFC80A47547
:100090008A17758CFCD28C308DFDC28CC28D22DF0C
:1000A000FE22D2B37F30119FC2B37FB4119F7FB4C1
:1000B000119FD2B37F54119F30B3004306018003D8
:1000C0005306FE7F14119F227E08E4C2B3C313D2ED
:1000D000B330B30244807F1E119FDEEF227E08C240
:1000E000B31392B37F2D119FD2B3DEF37F1E119F06
:1000F0002211A274CC11DD744411DD11A274CC1153
:10010000DD74BE11DD11C8F911C8FA2253900FFF3A
:1001100054F08590F053F00F45F0F590EFD2931125
:100120008FC2937F04118FDFFC53900F7F04C33382
:02013000DFFCF2
:1001320054F08590F053F00F45F0F590D293118F63
:10014200C2937F04118FDFFC22C2927402310C74BD
:1001520028310C740E310C7401310C7480310C2274
:10016200E4936005F608A380F722D292E660053197
:100172000C0880F822EA5480C2D17002800CD2D1DD
:10018200E9F4C304F9EAF43400FAEA7B04C333DB8A
:10019200FCF5F0E97B04C313DBFC45F022E9540FC4
:1001A20075F006A42275F00A842430FFE5F02430AD
:1001B200F5F0EF2220D1028006FB742DF608EBF653
:1001C20008A6F00822762E08F608A6F00822D29198
:1001D200D2902091167B0A118FDBFC209125783278
:1001E200E6C32408F608E63400F6222090157B0ABE
:1001F200118FDBFC20900C7832E6C39408F608E6F7
:100202009400F6227830E6F5F07832E6C395F0787D
:0D02120031E6F5F07833E695F0B392B722AF
:00000001FF
